:1000000019C1000048C1000046C1000044C1000001
:1000100042C100000C94FC100C9421113CC1000062
:100020003AC1000038C1000036C1000034C10000F0
:1000300032C1000030C100002EC100002CC1000000
:100040002AC1000028C1000026C1000024C1000010
:1000500022C1000020C100001EC100000C945E09F6
:100060001AC1000010C700000C94041214C1000053
:1000700012C1000010C100000EC100000CC1000040
:100080000AC1000008C1000006C1000004C1000050
:1000900002C1000000C10000FEC00000FCC0000062
:1000A000FAC00000F8C00000F6C00000F4C0000074
:1000B000F2C00000F0C00000EEC00000ECC0000084
:1000C000EAC00000E8C00000E6C00000E4C0000094
:1000D000E2C00000E0C00000DEC00000DCC00000A4
:1000E000DAC0000030083308220826082A086A0807
:1000F00037083B084108450849084F085308570886
:100100006A085D0861086508BF08C408C908D30803
:10011000DD085609E708EF08F70801090B0915097A
:1001200024092E095609380942094C09000021000A
:10013000240027002A002D003000330001010000B8
:10014000040107010A0100002200250028002B00FD
:100150002E003100340002010000050108010B01EE
:1001600005050505070508080808020202020A0A33
:100170000808040404040101010101010101030351
:10018000030303030303040707070C0C0C0C0C0CFC
:100190000C0C0202020206060606060606060B0BF9
:1001A0000B0B0B0B0B0B010210202008081020403A
:1001B000102040800201020108040201010204082B
:1001C00010204080804020100804020180040201B9
:1001D0008040201008040201080402010102040802
:1001E00010204080010204081020408000000A0B0B
:1001F00002090C0D0E0807030401000000000000B6
:1002000000000000000000000000000000000000EE
:1002100000000000000000001211100000000000AB
:1002200000000000000000000000000000000000CE
:1002300000002E1211241FBECFEFD1E2DEBFCDBFD2
:1002400000E00CBF17E0A0E0B2E0EEE8F5E300E06C
:100250000BBF02C007900D92A435B107D9F72DE06E
:10026000A4E5B7E001C01D92A436B207E1F711E0A2
:10027000CAE1D1E000E006C021970109802FFE010C
:100280000E947218C931D10780E00807A9F70E94BF
:1002900058140C94C51AB4CE089580E090E00895E7
:1002A000FC01538D448D252F30E0842F90E0821B7C
:1002B000930B541710F0CF96089501970895FC0101
:1002C000918D828D981761F0828DDF01A80FB11D8D
:1002D0005D968C91928D9F5F9F73928F90E00895B1
:1002E0008FEF9FEF0895FC01918D828D981731F06B
:1002F000828DE80FF11D858D90E008958FEF9FEFBF
:100300000895FC01918D228D892F90E0805C9F4F94
:10031000821B91098F739927089580E090E0892BC3
:1003200021F00E94F911811125C080E090E0892B15
:1003300041F080E090E0892B21F00E9400008111C3
:100340001CC080E090E0892B41F080E090E0892B98
:1003500021F00E940000811113C080E090E0892B01
:10036000A1F080E090E0892B81F00E9400008111D3
:100370000AC008950E940000D8CF0E940000E1CF7B
:100380000E940000EACF0C94000008952FB7F89463
:100390006091610770916207809163079091640793
:1003A0002FBF0895FC01EE57FB4F8081089582E531
:1003B00093E0089583E793E00895FC018385948595
:1003C0000895DB012C91FC0120870184F285E02D4A
:1003D0000696199481E893E0089582EA93E00895DF
:1003E000FC01838594850895DB012C91FC01208715
:1003F0000184F285E02D0696199480EB93E0089530
:1004000081ED93E00895FC0186859785089581EE3E
:1004100093E0089582E094E00895FC01838594853B
:100420000895DB012C91FC0120870184F285E02DE9
:100430000696199481E194E0089582E394E008958A
:10044000FC018685978508958FE394E0089580E602
:1004500094E00895FC01828593850895DC01189647
:10046000ED91FC911997069619948F929F92AF92F5
:10047000BF92CF92DF92EF92FF920F931F93CF9391
:10048000DF9300D01F921F92CDB7DEB78C016B01B6
:1004900064E6C616D1043CF0FC01EE57FB4F8081A8
:1004A000882309F478C0DA01ED91FC910190F08184
:1004B000E02DB801655E7D4FCA0119959C01780158
:1004C000BCEEEB1ABDEFFB0A4FEFF70140834EEF96
:1004D0003196408331968083319690833196890F8F
:1004E000809580833196C082D801A65EBD4FDC9294
:1004F00065E070E040E050E0C901079668177907B1
:1005000030F4A1914A0F511D6F5F7F4FF7CF690102
:10051000F8E0CF0ED11C800F911FFC01EC5EFD4F67
:100520004095408341E0C41642E0D406C1F0560134
:100530004701D80112968D919C911397F401619116
:100540004F01DC01ED91FC910190F081E02D1995B6
:10055000C4018E199F098C159D055CF31EC082E2B3
:1005600092E09A83898383E08B838FE694E09D8376
:100570008C83D801ED91FC910190F081E02DAE01CA
:100580004F5F5F4F67E070E0C8011995AA24AA94F5
:10059000BB24BA9402C0A12CB12CC5010F900F90BE
:1005A0000F900F900F90DF91CF911F910F91FF90BF
:1005B000EF90DF90CF90BF90AF909F908F90089575
:1005C0000F931F93CF93DF93CDB7DEB72A970FB664
:1005D000F894DEBF0FBECDBF8C0186E192E09A8316
:1005E00089831B821C821D821E821F8218861986A7
:1005F0001A86D801ED91FC910190F081E02DAE01B9
:100600004F5F5F4F6AE070E0C8011995BFDEF801E7
:1006100060877187828793872A960FB6F894DEBF2A
:100620000FBECDBFDF91CF911F910F910895FC01B7
:1006300082818093050108950F931F93CF93DF93D9
:100640008C01EC012696CE010E944E0CD8011C961E
:10065000ED91FC911D97CE01DF91CF911F910F91EC
:1006600019940F931F93CF93DF938C01EC0126967F
:10067000CE0174D6D8011C96ED91FC911D97CE0148
:10068000DF91CF911F910F9119942F923F924F922A
:100690005F926F927F928F929F92AF92BF92CF9212
:1006A000DF92EF92FF920F931F93CF93DF93CDB71B
:1006B000DEB7A8970FB6F894DEBF0FBECDBF8C0192
:1006C00065DE2B013C01980129573B4F3C8B2B8B5E
:1006D000F90180819181A281B381A3019201281B3C
:1006E000390B4A0B5B0BDA01C901893F9A42A1051C
:1006F000B10510F035971082780148E8E41A4BEF05
:10070000F40AD7018D919C91892B79F0F801E55776
:10071000FB4F80819181A281B38184159505A60547
:10072000B70518F4F70111821082980120583B4F49
:10073000388B2F87A80144585B4F5A8B498BC801CF
:1007400044969E8B8D8BD801AE57BB4FBA8FA98F25
:10075000F801E057FB4FF8A3EF8F215F3F4F3AA31B
:1007600029A3180136E8231A3BEF330A4E5F5F4F87
:10077000588F4F8B89589B4F9CA38BA3A301920149
:100780002C5E3F4F4F4F5F4F2DA33EA34FA358A763
:10079000D80112968D919C911397DC01ED91FC91FB
:1007A0000284F385E02D19959C0197FD71C2EF85B8
:1007B000F88980819181820F931F91838083D70173
:1007C0004D915C9147305105C9F4EF89F88D8081D6
:1007D0009181AC014F5F5F4F51834083F801E80F77
:1007E000F91F248BD1018D919C91119701978D93C5
:1007F0009C93892B69F688E090E032C04115510541
:1008000039F52F3F310589F481E090E0D7018D93D0
:100810009C932DA13EA14FA158A5ABA1BCA12D93A6
:100820003D934D935C931397B3CFB0DDDC01CB01C7
:1008300084199509A609B7090697A105B10508F419
:10084000A7CFF801EE57FB4F10828EEF9FEF47C204
:1008500041305105A1F42E3F310531F482E090E0A2
:10086000F7019183808394CFD7011D921C92E98D6B
:10087000FA8D808181118CCFC801A2DE89CF4230F0
:10088000510589F4D1012D933C93EF89F88D1182A4
:10089000108283E090E0D7018D939C93EF85F889D7
:1008A0003183208375CF4330510569F4322F2227DD
:1008B000D1018D919C911197280F391F2D933C9355
:1008C00084E090E0CDCF4430510589F460E071E0E0
:1008D0000E943D188F3F910531F485E090E0D701EB
:1008E0008D939C9355CFF7011182108251CF4530E3
:1008F000510571F4A989BA892D933C9386E090E063
:10090000F70191838083AF85B8892D933C9340CFC5
:100910004630510599F4322F2227E989FA898081DE
:100920009181280F391F3183208387E090E0D70120
:100930008D939C93F101808191815BCF483051056B
:1009400009F026CFD7011D921C9260E071E00E9451
:100950003D188F3F910509F01BCFE989FA89808105
:100960009181009709F0C6C0C8012ADE8AE092E0B2
:100970009A8389831C821B8287EA94E09E838D83FD
:1009800098878F839A8789871B861C861D861E867B
:100990005801FCEEAF1AFBEFBF0A68012AEBC21A3E
:1009A0002BEFD20AD501ED91FC913097D9F18481DA
:1009B00095819C838B83808191819E838D838281AD
:1009C0009381DC01ED91FC910480F581E02D199576
:1009D00098878F83D501ED91FC9182819381DC0111
:1009E000ED91FC910680F781E02D19959A87898712
:1009F00020E032E040E050E02B873C874D875E8767
:100A0000D8018D919C91F501A081B18118966D91CD
:100A10007C911997DC01ED91FC91AE014F5F5F4F26
:100A2000C8011995B2E0AB0EB11CAC14BD0409F0BD
:100A3000B9CF812C92E0992EA12CB12CF601A08186
:100A4000B1811097E1F112968D919C9113979C833F
:100A50008B8314968D919C9115979E838D83ED9138
:100A6000FC9111970480F581E02DCD0119959887AF
:100A70008F83D6018D919C91DC01ED91FC910680D4
:100A8000F781E02D19959A8789878B869C86AD869C
:100A9000BE86D801ED91FC9120803180F6018081E5
:100AA0009181DC01ED91FC910280F381E02D19959B
:100AB000AE014F5F5F4FBC01C801F1011995F2E033
:100AC000CF0ED11CCE14DF0409F0B8CFF801EE57D9
:100AD000FB4F81E080833196408251826282738233
:100AE000AB89BC894D925D926D927C9213978FEF8A
:100AF0009FEFF5C08A30910509F09FC086E192E032
:100B00009A8389831B821C821D821E821F82188603
:100B100019861A863BDCF80180849184A284B38410
:100B20009B01AC01281939094A095B0949015A019D
:100B30006D897E89CE0101960E94F80DC501B40130
:100B400028EE33E040E050E00E9450188B809C80FB
:100B5000AD80BE80820E931EA41EB51E8B829C8229
:100B6000AD82BE829B01AC0160E472E48FE090E054
:100B70000E942E188F809884A984BA84DC01CB014E
:100B8000880D991DAA1DBB1D8F839887A987BA87D9
:100B9000FDDB8F809884A984BA8436E3931A35E606
:100BA000A30A34ECB30A28EE33E040E050E00E94A0
:100BB00050182B8F3C8F4D8F5E8F9B01AC0160E4F2
:100BC00072E48FE090E00E942E18A5019401261B8C
:100BD000370B480B590BCA01B9018B809C80AD8043
:100BE000BE8031E0831A9108A108B1082B8D3C8D9D
:100BF0004D8D5E8D821A930AA40AB50A20E03AEC64
:100C00004AE95BE30E945018820E931EA41EB51E93
:100C1000D8011C968D929D92AD92BC921F97F801BF
:100C2000608B718B828B938BB1DBAB89BC896D93AD
:100C30007D938D939C931397ABCD8630910559F49A
:100C40006D897E898F8D98A10E94E80F81E0E9A1CE
:100C5000FAA180839DCD8B30910521F4A98DBA8DA9
:100C60001C9296CDFC01E154FE4FEE0FFF1FE00FEA
:100C7000F11F80819181009709F48ACDDC01ED910B
:100C8000FC910190F081E02D6D897E89199580CDD0
:100C9000F801EE57FB4F80818823F9F07801BDE71A
:100CA000EB1ABBEFFB0AF70180819181A281B3812E
:100CB000A3019201281B390B4A0B5B0BDA01C90116
:100CC000853C9940A105B10540F0C80179DCD70108
:100CD0004D925D926D927C92139780E090E0A89681
:100CE0000FB6F894DEBF0FBECDBFDF91CF911F913D
:100CF0000F91FF90EF90DF90CF90BF90AF909F90BB
:100D00008F907F906F905F904F903F902F900895BD
:100D1000FC016281738180E090E00E94A01728E4CA
:100D200031EE42E850E40E940C170E947417CB0188
:100D3000A0E0B0E0109258071092590710925A079D
:100D400010925B07109254071092550710925607A5
:100D500010925707E6E6FEE03197F1F70000409168
:100D600054075091550760915607709157074817DF
:100D700059076A077B0768F4409158075091590753
:100D800060915A0770915B07481759076A077B07FC
:100D900008F380E00C9446110F931F93FC016281CD
:100DA000738180E090E00E94A01725EE30ED4AEAC2
:100DB00050E40E940C170E9474171092580710926A
:100DC000590710925A0710925B07E6E6FEE031974A
:100DD000F1F70000009158071091590720915A0728
:100DE00030915B07601771078207930770F780E007
:100DF0001F910F910C94461181E00C948C11CF93AC
:100E0000DF93EC018B819A81923059F024F4913078
:100E100069F4815809C0933031F0943039F48D521F
:100E200003C0815401C08D560E948C11EC81FD815C
:100E30008191882329F198B19F7098B998B1282F92
:100E4000207F922B98B9409A4198429AAFEFB7E42D
:100E50001197F1F700C0000042988295807F98B109
:100E60009F7098B998B1892B88B9409A4198429A55
:100E70008FEF97E40197F1F700C000004298D8CFB8
:100E8000DF91CF9108951F920F920FB60F92112408
:100E90000BB60F922F938F939F93EF93FF93E09155
:100EA0007507F09176078081E0917B07F0917C07D0
:100EB00082FD12C0908180917E078F5F8F73209199
:100EC0007F07821751F0E0917E07F0E0EB59F84F71
:100ED000958F80937E0701C08081FF91EF919F9154
:100EE0008F912F910F900BBE0F900FBE0F901F9000
:100EF0001895FC01848DDF01A80FB11DA35ABF4FC7
:100F00002C91848D90E001968F739927848FA68908
:100F1000B7892C93A089B1898C9180648C93938D2F
:100F2000848D981306C00288F389E02D80818F7D1F
:100F300080830895EF92FF920F931F93CF93DF93D7
:100F4000EC0181E0888F9B8D8C8D981305C0E8891A
:100F5000F989808185FD23C0F62E0B8D10E00F5F8F
:100F60001F4F0F731127E02E8C8DE8120BC00FB6A8
:100F700007FCFACFE889F989808185FFF5CFCE019A
:100F8000B8DFF2CF8B8DFE01E80FF11DE35AFF4F62
:100F9000F0820B8FEA89FB898081806207C0EE892D
:100FA000FF896083E889F98980818064808381E09A
:100FB00090E0DF91CF911F910F91FF90EF900895F6
:100FC000CF93DF93EC01888D8823C1F0EA89FB89F8
:100FD000808185FD05C0A889B9898C9186FD0EC0E8
:100FE0000FB607FCF5CF808185FFF2CFA889B989BC
:100FF0008C9185FFEDCFCE017CDFE8CFDF91CF91E3
:101000000895362F90E0FC01E451FE4F4491FC011D
:10101000EA55FE4F2491FC01E05AFE4F949199232A
:1010200009F46BC0442309F455C050E0FA0131972C
:10103000E231F10508F04EC08827EE58FF4F8F4F80
:101040000C947218809180008F7707C08091800087
:101050008F7D03C080918000877F809380003AC09D
:1010600084B58F7702C084B58F7D84BD33C08091F5
:10107000B0008F7703C08091B0008F7D8093B00067
:1010800029C0809190008F7707C0809190008F7D5C
:1010900003C080919000877F809390001BC0809157
:1010A000A0008F7707C08091A0008F7D03C0809142
:1010B000A000877F8093A0000DC0809120018F77D2
:1010C00007C0809120018F7D03C080912001877F20
:1010D00080932001E92FF0E0EE0FFF1FEA5BFE4F47
:1010E000A591B4918FB7F894EC91311103C020957C
:1010F0002E2301C02E2B2C938FBF08950F931F9387
:10110000982F082F10E0F801EA55FE4F8491F8015E
:10111000E05AFE4F2491222399F030E0220F331F32
:10112000F901E45DFE4FA591B4912A5B3E4FF901B0
:10113000259134912FB7F894EC91E82BEC932FBFC5
:101140006115710511F460E004C06F3F710529F469
:1011500061E0892F1F910F9154CFF801E451FE4FA8
:10116000E4910E2F10E0F8013197E231F10508F01B
:101170009DC08827EC57FF4F8F4F0C94721884B591
:10118000806884BD67BD97C084B5806284BD68BD3A
:1011900092C0809180008068809380007093890065
:1011A0006093880088C08091800080628093800076
:1011B00070938B0060938A007EC08091800088606D
:1011C0008093800070938D0060938C0074C0809138
:1011D000B00080688093B0006093B3006CC08091D1
:1011E000B00080628093B0006093B40064C08091CE
:1011F00090008068809390007093990060939800AD
:101200005AC08091900080628093900070939B0000
:1012100060939A0050C08091900088608093900005
:1012200070939D0060939C0046C08091A0008068F0
:101230008093A0008091A0008F7B8093A00070938A
:10124000A9006093A80037C08091A00080628093BD
:10125000A0007093AB006093AA002DC08091A00005
:1012600088608093A0007093AD006093AC0023C0B1
:101270008091200180688093200170932901609300
:10128000280119C080912001806280932001709311
:101290002B0160932A010FC0809120018860809308
:1012A000200170932D0160932C0105C060387105F9
:1012B0000CF04ECF48CF1F910F9108951F920F92BF
:1012C0000FB60F9211242F933F938F939F93AF9359
:1012D000BF938091610790916207A0916307B091DD
:1012E00064073091600725E1230F2D3720F4019624
:1012F000A11DB11D05C028E9230F0296A11DB11D36
:10130000209360078093610790936207A09363071F
:10131000B093640780915C0790915D07A0915E0790
:10132000B0915F070196A11DB11D80935C0790935A
:101330005D07A0935E07B0935F07BF91AF919F9148
:101340008F913F912F910F900FBE0F901F90189586
:1013500081E194E0089582E394E008958F929F9252
:10136000AF92BF92CF92DF92EF92FF920F931F93B3
:10137000CF93DF93FC01DB018C91828311968C91DA
:1013800011978383129640E050E0C12CD12C760156
:101390000D9110E0042E02C0000F111F0A94E2F715
:1013A000012E000C220B330BC02AD12AE22AF32A89
:1013B000485F5F4F4032510559F7DB0116964601F1
:1013C000570186E0880E911CA11CB11C8D01061BE3
:1013D000170B20E030E0081519052A053B0528F415
:1013E0008D91ED0122978883F1CFDB01AC0DBD1DFE
:1013F00015961C926B5F7F4F75836483C6010696BA
:10140000DF91CF911F910F91FF90EF90DF90CF90E0
:10141000BF90AF909F908F90089588EA94E00895D0
:1014200089EC94E0089589ED94E008958AEF94E0C2
:101430000895FC01DB012C9130E033832283119667
:101440008C911197382B3383228312962C9112970B
:1014500030E03583248313968C91382B3583248395
:1014600084E090E00895DC01FB0112968C911297C4
:10147000808313968C911397818314968C91149783
:10148000828315968C91838384E090E0089587E0B1
:1014900095E0089588E295E00895FB01208130E011
:1014A000FC0133832283FB014181342BFC01338314
:1014B000228382E090E00895FC012281FB012083D9
:1014C000FC018381FB01818382E090E0089589E340
:1014D00095E008958AE595E00895FC01DB018C9183
:1014E00090E09383828311962C911197922B938392
:1014F000828312968C91129790E095838483139641
:101500002C911397922B9583848314968C91149726
:1015100090E09783868315962C911597922B97834D
:10152000868316968C91169790E091878087179600
:101530002C911797922B9187808718968C911897EA
:1015400090E09387828719962C911997922B938715
:1015500082871A968C911A9790E0958784871B96BC
:101560002C911B97922B958784871C968C911C97A6
:1015700090E0978786871D962C911D97922B9787D1
:1015800086871E968C911E9790E0918B808B1F967C
:101590002C91922B918B808B80E190E00895DC015F
:1015A000FB0112968C911297808313968C9113975E
:1015B000818314968C911497828315968C9115973C
:1015C000838316968C911697848317968C91179720
:1015D000858318968C911897868319968C91199704
:1015E00087831A968C911A9780871B968C911B97EC
:1015F00081871C968C911C9782871D968C911D97D4
:1016000083871E968C911E9784871F968C911F97B7
:10161000858750968C915097868751968C918787B5
:1016200080E190E0089586E695E0089587E895E0EA
:101630000895FC01DB018C9190E0938382831196E5
:101640002C911197922B9383828312968C911297EF
:1016500090E09583848313962C911397922B958316
:10166000848314968C91149790E0978386831596C3
:101670002C911597922B9783868316968C911697AB
:1016800090E09187808717962C911797922B9187DE
:10169000808718968C91189790E093878287199687
:1016A0002C91922B938782878AE090E00895DC0149
:1016B000FB0112968C911297808313968C9113974D
:1016C000818314968C911497828315968C9115972B
:1016D000838316968C911697848317968C9117970F
:1016E000858318968C911897868319968C911997F3
:1016F00087831A968C911A9780871B968C91818785
:101700008AE090E0089586E995E0089587EB95E0FA
:101710000895FC01DB018C9190E093838283119604
:101720002C911197922B9383828312968C9112970E
:1017300090E09583848313962C911397922B958335
:10174000848314968C91149790E0978386831596E2
:101750002C91922B9783868386E090E00895EF92F8
:10176000FF920F931F93CF93DF937C018B0102961F
:10177000D0DFEC01B801680F791FC7010A9659DF65
:10178000C80FD91FB8016C0F7D1FC7014696A5DE93
:10179000C80FD91FF801EC0FFD1F808190E0D70121
:1017A0009B969C938E939A972181922B9B969C93C8
:1017B0008E939A972296B8016C0F7D1FC7018C9665
:1017C00038DE8C0F9D1FDF91CF911F910F91FF90FD
:1017D000EF900895DC01FB0112968C9112978083A3
:1017E00013968C911397818314968C91149782830E
:1017F00015968C911597838316968C9116978483F2
:1018000017968C91858386E090E00895EF92FF9281
:101810000F931F93CF93DF937C018B010296DADF46
:10182000EC01B801680F791FC7010A9640DFC80FA5
:10183000D91FB8016C0F7D1FC7014696B0DEC80FD7
:10184000D91FF801EC0FFD1FD7019A968C919A973A
:1018500080839B968C9181832296B8016C0F7D1FAB
:10186000C7018C9600DE8C0F9D1FDF91CF911F91D9
:101870000F91FF90EF9008958FE394E0089580E634
:1018800094E0089580E090E0089580E090E008956D
:1018900080EB93E0089581ED93E00895FC01DB0176
:1018A0004C9150E060E070E0428353836483758321
:1018B00011968C911197582B4283538364837583BF
:1018C00012968C911297682B42835383648375839D
:1018D00013968C91782B428353836483758384E0C1
:1018E00090E00895DC01FB0112968C9112978083A1
:1018F00013968C911397818314968C9114978283FD
:1019000015968C91838384E090E0089581EE93E0B6
:10191000089582E094E00895FB012081FC01228378
:1019200081E090E00895FC018281FB01808381E0E9
:1019300090E0089581E893E0089582EA93E00895A5
:10194000FB012081FC01228381E090E00895FC01ED
:101950008281FB01808381E090E0089582E593E03D
:10196000089583E793E00895FB012081FC01228321
:1019700081E090E00895FC018281FB01808381E099
:1019800090E0089584EC95E008958AE292E008954D
:1019900085EE95E0089586E096E00895AF92BF92B7
:1019A000CF92DF92EF92FF920F931F93CF93DF932B
:1019B0005C01EB018881F501828389819A81AB8189
:1019C000BC81FB0135966C017D0125E0C20ED11C66
:1019D000E11CF11C8F01061B170B20E030E00C15F9
:1019E0001D052E053F0538F441919F012250310914
:1019F000E9014883EFCFFB01E80FF91F14826C5F08
:101A00007F4FF501748363830596DF91CF911F911A
:101A10000F91FF90EF90DF90CF90BF90AF9008951F
:101A200089E196E008958AE396E008956F927F92A7
:101A30008F929F92AF92BF92CF92DF92EF92FF92DE
:101A40000F931F93CF93DF93DC01FB01808190E024
:101A500013969C938E9312972181922B13969C93AD
:101A60008E93129702811381248135815B0186E078
:101A7000A80EB11C68017901C6E0CC0ED11CE11C96
:101A8000F11CA5014E1B5F0B60E070E04C155D057D
:101A90006E057F0540F4E50149915E01CE01029794
:101AA000EC014883EECFEF01C00FD11F1D82CF01A3
:101AB000059615969C938E931497EF01C00FD11F36
:101AC0004E815F8168857985065F1F4F3F01600EFB
:101AD000711E6801012E000CEE08FF08C40ED51E11
:101AE000E61EF71E43018E1A9F0AA12CB12C8C14FE
:101AF0009D04AE04BF0440F4E30129913E01CE01F0
:101B00000297EC012883EECF400F511F9F01240F55
:101B1000351FC9010197EC011882C80101978E0F8A
:101B20009F1F17969C938E931697E9018880998042
:101B3000AA80BB804C5F5F4F3F01640E751E8A0117
:101B4000052E000C220B330B080D191D2A1D3B1D01
:101B50006301CE1ADF0AE12CF12CC016D106E20691
:101B6000F30640F4E30169913E01CE010297EC01D6
:101B70006883EECFCA01880D991D8F01080F191FC8
:101B8000980121503109E9011882BA0161507109A7
:101B9000E60FF71F1996FC93EE931897F801218131
:101BA000428150E060E070E0BA0155274427522B93
:101BB0002081422B2381722B1A964D935D936D9356
:101BC0007C931D970496DF91CF911F910F91FF9009
:101BD000EF90DF90CF90BF90AF909F908F907F90CD
:101BE0006F90089583E596E0089584E796E0089560
:101BF000FC01DB014C9150E060E070E042835383D4
:101C00006483758311968C911197582B428353836B
:101C10006483758312968C911297682B4283538349
:101C20006483758313968C911397782B4283538327
:101C30006483758314964C91149750E060E070E0D3
:101C4000468357836087718715968C911597582B1B
:101C5000468357836087718716968C911697682BF9
:101C6000468357836087718717968C91782B4683BC
:101C700057836087718788E090E00895DC01FB015D
:101C800012968C911297808313968C91139781836F
:101C900014968C911497828315968C911597838353
:101CA00016968C911697848317968C911797858337
:101CB00018968C911897868319968C91878388E063
:101CC00090E00895FC016281062E000C770B8DE2F6
:101CD00015CAFC016281062E000C770B8EE20ECA3B
:101CE000FC01628182E28DC9CF93DF93DC01FB01AD
:101CF00012968C911297808313968C9113978183FF
:101D000014968D919C911597EC0109900020E9F7AC
:101D10002197C81BD90BC283AE015383148215824D
:101D200014966D917C911597AE01CF0106960E9495
:101D30008F19CE010696DF91CF910895BF92CF9271
:101D4000DF92EF92FF920F931F93CF93DF93EC01FB
:101D50008B018A81FB018083118212821382DB0155
:101D6000179680E0E4E0F0E09A819F012C5F3F4FFE
:101D70008917B8F4EF81F88594E0899FE00DF11D93
:101D800011247081518142819381FD0133977083C9
:101D900031965083319640839C93F9018F5F14965E
:101DA000E3CF8985E00FF11F8083118212821382B5
:101DB00080E09985F801E20FF31F2C5F3F4F8917F0
:101DC000B0F4AE85BF8594E0899FA00DB11D1124AC
:101DD0006C9111965C91119712964C9112971396F3
:101DE0009C9160835183428393838F5FE2CF888984
:101DF000808311821282C9011382B12C2889B21604
:101E000090F5EB2DF0E0EE0FFF1FAB89BC89AE0F14
:101E1000BF1F2D913C91D9010D900020E9F711973A
:101E20006D01C21AD30AD801A80FB91FA60160E03C
:101E300070E04D935D936D937C9313977C0124E048
:101E4000E20EF11C8B899C89E80FF91F608171817A
:101E5000A601C8018E0D9F1D0E948F19C6018E0D0F
:101E60009F1DB394CBCFDF91CF911F910F91FF9026
:101E7000EF90DF90CF90BF900895CF93DF93DC0178
:101E8000FB0112968C911297808313968D919C91F1
:101E90001497EC0109900020E9F72197C81BD90B92
:101EA000AE0160E070E041835283638374831396D4
:101EB0006D917C911497AE01CF0105960E948F1908
:101EC000CE010596DF91CF910895CF92DF92EF92E8
:101ED000FF920F931F93CF93DF937C01EB01FC01E3
:101EE0008281888383818983A481B581FD010190EA
:101EF0000020E9F731976F01CA1ADB0AC601A0E09A
:101F0000B0E08A839B83AC83BD83F70164817581D4
:101F1000A601CE0106960E948F19F701A681B7810E
:101F2000FD0101900020E9F731978F010A1B1B0B7F
:101F3000FE01EC0DFD1DC801A0E0B0E08683978393
:101F4000A087B187FAE0CF0ED11CF70166817781B7
:101F5000A801CE018C0D9D1D0E948F190C0D1D1D19
:101F6000F701A085B185FD0101900020E9F73197C7
:101F70006F01CA1ADB0AFE01E00FF11FC601A0E0E3
:101F8000B0E080839183A283B3830C5F1F4FF7017E
:101F900060857185A601CE01800F911F0E948F1967
:101FA0000C0D1D1DF7014285238594858585C00F85
:101FB000D11F488329839A838B83C8010496DF91BC
:101FC000CF911F910F91FF90EF90DF90CF900895E8
:101FD0004F925F926F927F928F929F92AF92BF9239
:101FE000CF92DF92EF92FF920F931F93CF93DF93E5
:101FF000EC017B01DB011C918A81811750F4B4E074
:102000001B9FB00111248F8198850E94A718988783
:102010008F831A83F701379680E024E030E06E0169
:1020200093E0C90ED11C9A8189010C5F1F4F89175B
:1020300090F5408150E060E070E0742F66275527EE
:1020400044279F0123503109D9019C91492B2F5FCF
:102050003F4FD9019C91592B2F5F3F4FD9019C9144
:10206000692B4B835C836D837E8398014F815885F8
:10207000B4E08B9F400D511D1124D6018D909D9091
:10208000AD90BC90DA018D929D92AD92BC92139767
:102090008F5F3496C8CFF701E20FF31FB0808985B8
:1020A0008B1550F4B4E0BB9EB00111248E859F8542
:1020B0000E94A7189F878E87B98640E0BE01665FA1
:1020C0007F4F8985F701E00FF11F0C5F1F4F481705
:1020D00020F55181828190E0A0E0B0E0DC019927F9
:1020E0008827952B5081852B2381B22B8A879B874C
:1020F000AC87BD87AE85BF85E4E04E9FA00DB11DC6
:102100001124FB0180809180A280B3808D929D92EA
:10211000AD92BC9213974F5FD4CFB08088898B1556
:1021200050F46B2D70E0660F771F8B899C890E949D
:10213000A7189C8B8B8BB88A90E06E01F1E1CF0ED3
:10214000D11C8889981708F045C0F701E00FF11FEE
:10215000408151816281738198012C5F3F4FF7016B
:10216000E20FF31F4901032E000CAA08BB08840EDE
:10217000951EA61EB71E8F010E191F092801612C7E
:10218000712C481459046A047B0438F481918F013E
:1021900002501109D8018C93EECF420F531FF70163
:1021A000E40FF51F31971082215031092E0D3F1D8C
:1021B0003A8B298B8A012B898C89E22FF82FE90F22
:1021C000F11DE90FF11DD6012D913C913183208342
:1021D0009F5FB7CFC801DF91CF911F910F91FF9003
:1021E000EF90DF90CF90BF90AF909F908F907F90B7
:1021F0006F905F904F9008951F920F920FB60F92BD
:1022000011248F939F93AF93BF9380915407909124
:102210005507A0915607B09157070196A11DB11D12
:102220008093540790935507A0935607B093570790
:10223000BF91AF919F918F910F900FBE0F901F9004
:1022400018951F920F920FB60F9211248F939F93A0
:10225000AF93BF938091580790915907A0915A0767
:10226000B0915B070196A11DB11D80935807909313
:102270005907A0935A07B0935B07BF91AF919F9105
:102280008F910F900FBE0F901F90189592B1907F75
:102290008F70982B92B90895FC018281813011F4DE
:1022A00086E01CC0823011F485E018C0833011F440
:1022B0008AE014C0843011F489E010C0853011F434
:1022C00084E00CC0863011F482E008C0873011F43D
:1022D00081E004C0883011F0811101C0D7CF08958A
:1022E000883018F098E090937B008770806280932C
:1022F0007C0080917A00806480937A0080917A00DB
:1023000084FFFCCF8091790090917A009061909346
:102310007A0010927B00089598B19F7098B998B197
:10232000282F207F922B98B940984198429AEFEF3E
:10233000F7E43197F1F700C00000429898B19F7020
:1023400098B998B18295807F892B88B94098419837
:10235000429A8FEF97E40197F1F700C0000042988E
:102360000895EFECFCE020E030E041915191452BE5
:1023700071F4F901EE0FFF1FE153F34F9183808356
:102380002C593F4FFC013383228381E008952F5F56
:102390003F4F2931310549F780E00895CF92DF9210
:1023A000EF92FF920F931F93CF93DF936C017A010B
:1023B0008B01C0E0D0E0CE15DF0589F0D8016D912A
:1023C0008D01D601ED91FC910190F081E02DC601C7
:1023D0001995892B11F47E0102C02196ECCFC7011B
:1023E000DF91CF911F910F91FF90EF90DF90CF90F1
:1023F000089585E697E00E94810121E0892B09F488
:1024000020E0822F089587D71F920F920FB60F9268
:1024100011240BB60F922F933F934F935F936F93BB
:102420007F938F939F93AF93BF93EF93FF9385E633
:1024300097E00E947907FF91EF91BF91AF919F9133
:102440008F917F916F915F914F913F912F910F905D
:102450000BBE0F900FBE0F901F901895109268073B
:102460001092670788EE93E0A0E0B0E080936907E0
:1024700090936A07A0936B07B0936C078AE492E08D
:10248000909366078093650785EC90E090937207C0
:102490008093710784EC90E09093740780937307A6
:1024A00080EC90E0909376078093750781EC90E044
:1024B000909378078093770782EC90E090937A0767
:1024C0008093790786EC90E090937C0780937B075C
:1024D00010927E0710927F0710928007109281075A
:1024E0008AEB92E090932F0D80932E0D8EE792E071
:1024F0009093310D8093300D1092330D1092320D68
:102500001092350D1092340D1092370D1092360D39
:102510008AE892E09093390D8093380D10923B0D2C
:1025200010923A0D10923D0D10923C0D10923F0DFD
:1025300010923E0D1092410D1092400D1092430DDD
:102540001092420D86E992E09093450D8093440DE0
:102550001092470D1092460D1092490D1092480DA1
:1025600010924B0D10924A0D10924D0D10924C0D81
:1025700010924F0D10924E0D1092510D1092500D61
:102580001092530D1092520D1092550D1092540D41
:102590008EEA92E09093570D8093560D1092590D4C
:1025A0001092580D82EA92E090935B0D80935A0D41
:1025B00010925D0D10925C0D10925F0D10925E0DE9
:1025C00084E792E090938A088093890885E697E0F3
:1025D00090938C0880938B0880E091EEA0E0B0E0AF
:1025E00080938D0890938E08A0938F08B0939008E5
:1025F00010920B0D88E692E090931A0D8093190DBE
:1026000010921B0D1092210D1092200D1092220D90
:102610001092280D1092270D1092290D10922D0D59
:1026200010922C0DEDE9FCE0119211928CE0EF3C40
:10263000F807D1F7EFECFCE0119211928DE0E13058
:10264000F807D1F7EDE9F8E011928AE0ED39F807E3
:10265000D9F7EDE9FAE011928CE0ED39F807D9F7F6
:1026600082E896E09093800880937F088EE29DE058
:1026700090938208809381081092880810928708AE
:102680008AE493E0909373088093720882E393E066
:10269000909379088093780810927A0880E79EE0FA
:1026A00090937C0880937B0881E090E090937E0873
:1026B00080937D0824E936E03093770820937608EC
:1026C00046E253E050936608409365082AE133E000
:1026D00030936C0820936B0810926D086CE471E1E4
:1026E00070936F0860936E089093710880937008E0
:1026F00065EA76E070936A08609369085093590818
:102700004093580830935F0820935E081092600849
:1027100069E67EE0709362086093610890936408B4
:10272000809363086CEB76E070935D0860935C08BF
:1027300050934C0840934B08309352082093510813
:102740001092530822E63EE0309355082093540837
:10275000909357088093560822ED36E03093500846
:1027600020934F084EE053E050933C0840933B08C1
:1027700022E033E03093420820934108109243084E
:102780001092440810924508109246086CEC76E0CE
:10279000709348086093470890934A0880934908CB
:1027A00068EE76E07093400860933F0850932C08E1
:1027B00040932B083093320820933108109233084D
:1027C00010923408109235081092360828E836E046
:1027D000309338082093370890933A08809339084B
:1027E0002FEF36E03093300820932F0826EF32E0A9
:1027F00030931F0820931E082AEE32E030932508FC
:10280000209324081092260827E133E0309328080B
:102810002093270890932A088093290825E137E020
:1028200030932308209322082EED32E030930F08D6
:1028300020930E082CE532E03093150820931408FD
:1028400021E0209316082093170827EA34E03093FC
:102850001908209318082FEF36E030931B082093B7
:102860001A0890931D0880931C082CE237E03093DF
:1028700013082093120822ED32E0309303082093CE
:10288000020826EC32E030930908209308082CEF68
:1028900036E030930B0820930A0890930D0880933C
:1028A0000C0880E497E09093070880930608089549
:1028B000789484B5826084BD84B5816084BD85B51B
:1028C000826085BD85B5816085BD80916E00816027
:1028D00080936E00109281008091810082608093CD
:1028E00081008091810081608093810080918000CF
:1028F0008160809380008091B10084608093B100FA
:102900008091B00081608093B000809191008260DE
:1029100080939100809191008160809391008091DB
:1029200090008160809390008091A10082608093EC
:10293000A1008091A10081608093A1008091A000FE
:1029400081608093A00080912101826080932101A9
:10295000809121018160809321018091200181601B
:102960008093200180917A00846080937A00809126
:102970007A00826080937A0080917A008E7F8093C3
:102980007A0080917A00806880937A001092C1006A
:10299000F894CFEFC09304011092050110BA11BA58
:1029A000109207011092080110927A0010927B0099
:1029B00090E290937C0080E880BF86E880937A0064
:1029C00087B1876F87B988B1807888B9A6E6BEE0FD
:1029D0001197F1F700004098419880E388B9429A36
:1029E000EFEFF7E43197F1F700C000004298A6E658
:1029F000BEE01197F1F700004098419888B9429ADB
:102A0000EFEFF7E43197F1F700C000004298A6E637
:102A1000BEE01197F1F700004098419888B9429ABA
:102A2000EFEFF7E43197F1F700C000004298A6E617
:102A3000BEE01197F1F700004098419898B9429A8A
:102A4000E6E6FEE03197F1F70000429886E69EE068
:102A50000197F1F7000088E25FDC81E05DDC86E051
:102A60005BDC8EE059DC80E857DC80916A00826094
:102A700080936A00EC9A80916A00886080936A0073
:102A8000ED9AC1B912B87894C0908D08D0908E0894
:102A9000E0908F08F0909008C0918B08D0918C083E
:102AA00060E070E488E390E0A7019601F9D2DA01D2
:102AB000C9010197A109B109B695A7959795879581
:102AC0009C01E889F98982E08083211590E139072A
:102AD000A0F0E889F989108260E070E28CE190E072
:102AE000A7019601DDD2DA01C9010197A109B10957
:102AF000B695A795979587959C01EC85FD853083C4
:102B0000EE85FF852083188EEC89FD8986E0808321
:102B1000EA89FB89808180618083EA89FB898081E1
:102B200088608083EA89FB89808180688083EA8964
:102B3000FB8980818F7D80831092020D1092010DA0
:102B40001092040D1092030D1092080D1092070DB3
:102B50001092060D1092050DCFECDCE0FE0180E036
:102B600090E021913191232B81F4FC01EE0FFF1FA6
:102B7000E153F34F22E738E0318320838C599F4F94
:102B8000909375088093740804C00196893191056B
:102B900041F785E698E0E5DB88E598E0E2DB8BE449
:102BA00098E0DFDBEFECFCE080E090E021913191F8
:102BB000232B81F4FC01EE0FFF1FE153F34F2EE1B5
:102BC00038E0318320838C599F4F90932108809364
:102BD000200804C001968931910541F7EFECFCE033
:102BE00080E090E021913191232B81F4FC01EE0FE4
:102BF000FF1FE153F34F2EE038E0318320838C59DF
:102C00009F4F909311088093100804C0019689315A
:102C1000910541F7EFECFCE080E090E021913191EB
:102C2000232B81F4FC01EE0FFF1FE153F34F22E051
:102C300038E0318320838C599F4F9093050880930F
:102C4000040804C001968931910541F7EFECFCE0DE
:102C500080E090E021913191232B81F4FC01EE0F73
:102C6000FF1FE153F34F2BE338E0318320838C596E
:102C70009F4F90933E0880933D0804C00196893190
:102C8000910541F780E090E029913991232B81F45F
:102C9000FC01EE0FFF1FE153F34F2BE238E03183CD
:102CA00020838C599F4F90932E0880932D0804C049
:102CB00001968931910541F7EDE9FCE080E090E073
:102CC00021913191232BB1F4FC01EE0FFF1FE3564C
:102CD000F34F2FE738E03183208383589F4F909341
:102CE00084088093830889E898E09093860880930D
:102CF000850804C001968931910511F780E0F0DA6A
:102D000090E09093590D8093580D83E0E9DA90E0BC
:102D10009093330D8093320D82E0E2DA90E090934D
:102D2000350D8093340D81E0DBDA90E09093370D20
:102D30008093360D84E0D4DA90E09093470D809331
:102D4000460D85E0CDDA90E09093490D8093480DD3
:102D500086E0C6DA90E090934B0D80934A0D87E0B1
:102D6000BFDA90E090934D0D80934C0D88E0B8DA77
:102D700090E090934F0D80934E0D89E0B1DA90E092
:102D800090933B0D80933A0D8AE0AADA90E09093FD
:102D90003D0D80933C0D8BE0A3DA90E090933F0DC6
:102DA00080933E0D8CE09CDA90E09093410D8093EF
:102DB000400D8DE095DA90E09093430D8093420DA5
:102DC0008EE08EDA90E090935D0D80935C0D8FE045
:102DD00087DA90E090935F0D80935E0D8091850877
:102DE00090918608DC01ED91FC91609183087091CF
:102DF00084080190F081E02D4EE25DE0199589E8AC
:102E000098E00E944503EFEFFFE83197F1F700C02B
:102E100000000E948D0172CF0CD0E6C0DED040F0E1
:102E2000D5D030F021F45F3F19F0C7C0511110C167
:102E3000CAC0EBD098F39923C9F35523B1F3951B7E
:102E4000550BBB27AA2762177307840738F09F5FCB
:102E50005F4F220F331F441FAA1FA9F333D00E2E3A
:102E60003AF0E0E830D091505040E695001CCAF7A7
:102E700029D0FE2F27D0660F771F881FBB1F26176C
:102E800037074807AB07B0E809F0BB0B802DBF013F
:102E9000FF2793585F4F2AF09E3F510568F08DC081
:102EA000D7C05F3FECF3983EDCF386957795679546
:102EB000B795F7959F5FC9F7880F911D96958795F0
:102EC00097F90895E1E0660F771F881FBB1F62170F
:102ED00073078407BA0720F0621B730B840BBA0BCD
:102EE000EE1F88F7E095089598D088F09F5790F0EE
:102EF000B92F9927B751A0F0D1F0660F771F881F1F
:102F0000991F1AF0BA95C9F712C0B13081F09FD05D
:102F1000B1E008959CC0672F782F8827B85F39F0FB
:102F2000B93FCCF3869577956795B395D9F73EF47D
:102F300090958095709561957F4F8F4F9F4F089525
:102F4000E89409C097FB3EF4909580957095619543
:102F50007F4F8F4F9F4F9923A9F0F92F96E9BB27F9
:102F60009395F695879577956795B795F111F8CF75
:102F7000FAF4BB0F11F460FF1BC06F5F7F4F8F4FE0
:102F80009F4F16C0882311F096E911C0772321F0D6
:102F90009EE8872F762F05C0662371F096E8862F6E
:102FA00070E060E02AF09A95660F771F881FDAF7C5
:102FB000880F9695879597F9089597F99F6780E808
:102FC00070E060E008959FEF80EC089500240A947B
:102FD0001616170618060906089500240A941216F4
:102FE0001306140605060895092E0394000C11F427
:102FF000882352F0BB0F40F4BF2B11F460FF04C0D4
:103000006F5F7F4F8F4F9F4F089557FD9058440F2C
:10301000551F59F05F3F71F04795880F97FB991F37
:1030200061F09F3F79F087950895121613061406F4
:10303000551FF2CF4695F1DF08C016161706180681
:10304000991FF1CF86957105610508940895E8945C
:10305000BB2766277727CB0197F90895DB018F936C
:103060009F9348D0BF91AF91A29F800D911DA39FC8
:10307000900DB29F900D1124089597FB072E16F422
:10308000009406D077FD08D03FD007FC05D03EF471
:10309000909581959F4F0895709561957F4F089504
:1030A000A1E21A2EAA1BBB1BFD010DC0AA1FBB1F4C
:1030B000EE1FFF1FA217B307E407F50720F0A21BBE
:1030C000B30BE40BF50B661F771F881F991F1A942B
:1030D00069F760957095809590959B01AC01BD0155
:1030E000CF010895EE0FFF1F881F8BBF0790F69149
:1030F000E02D19941DD0A59F900DB49F900DA49F15
:10310000800D911D11240895AA1BBB1B51E107C01E
:10311000AA1FBB1FA617B70710F0A61BB70B881F67
:10312000991F5A95A9F780959095BC01CD010895F6
:10313000A29FB001B39FC001A39F700D811D1124F8
:10314000911DB29F700D811D1124911D08956F92E4
:103150007F928F929F92AF92BF92CF92DF92EF9227
:10316000FF920F931F93CF93DF93EC01009781F4AD
:10317000CB01DF91CF911F910F91FF90EF90DF90E6
:10318000CF90BF90AF909F908F907F906F90D0C066
:10319000FC01E60FF71F9C0122503109E217F307EB
:1031A00008F4A8C0D9010D911C91119706171707B3
:1031B000A8F00530110508F49BC0C80104978617D4
:1031C000970708F495C002501109061B170B0193CD
:1031D00011936D937C93CF0140D18AC05B01A01AFB
:1031E000B10A4C01800E911EA091620DB091630D49
:1031F00040E050E0E12CF12C109709F44AC0A815EA
:10320000B905D1F56D907C901197630182E0C80EED
:10321000D11CCA14DB0480F1A3014A195B096A01BD
:1032200082E0C80ED11C1296BC9012971396AC91F6
:10323000B5E0CB16D10440F0B282A3835183408322
:10324000D9016D937C930AC00E5F1F4FC301800F9D
:10325000911FF90191838083EB2DFA2FE114F10482
:1032600031F0D7011396FC93EE93129741C0F0937F
:10327000630DE093620D3CC08D919C9111974817AE
:10328000590708F4AC017D0112960D90BC91A02D58
:10329000B3CF8091600D9091610D88159905E1F48F
:1032A00046175707C8F480910002909101020097D9
:1032B00041F48DB79EB74091040250910502841BE2
:1032C000950BE817F907B0F4F093610DE093600DEA
:1032D000F901718360830CC0CB012AD07C01009777
:1032E00049F0A801BE011BD0CE01B7D0C70104C070
:1032F000CE0102C080E090E0DF91CF911F910F914D
:10330000FF90EF90DF90CF90BF90AF909F908F9005
:103310007F906F90089581E090E0F89436C1FB01B2
:10332000DC0102C001900D9241505040D8F7089541
:10333000CF93DF938230910510F482E090E0E0912A
:10334000620DF091630D20E030E0C0E0D0E03097F6
:1033500011F14081518148175907C0F048175907AA
:1033600061F482819381209719F09B838A832BC01B
:103370009093630D8093620D26C02115310519F0DD
:103380004217530718F49A01BE01DF01EF010280D2
:10339000F381E02DDCCF2115310509F1281B390B14
:1033A0002430310590F412968D919C9113976115FC
:1033B000710521F0FB019383828304C09093630D18
:1033C0008093620DFD01329644C0FD01E20FF31FB0
:1033D00081939193225031092D933C933AC02091CF
:1033E000600D3091610D232B41F420910202309148
:1033F00003023093610D2093600D20910002309103
:1034000001022115310541F42DB73EB74091040268
:1034100050910502241B350BE091600DF091610D78
:10342000E217F307A0F42E1B3F0B2817390778F09B
:10343000AC014E5F5F4F2417350748F04E0F5F1FFA
:103440005093610D4093600D8193919302C0E0E031
:10345000F0E0CF01DF91CF9108950F931F93CF93A9
:10346000DF93009709F48CC0FC013297138212821B
:103470000091620D1091630D0115110581F42081F9
:103480003181820F931F2091600D3091610D2817BB
:10349000390779F5F093610DE093600D71C0D801A3
:1034A00040E050E0AE17BF0750F412962D913C91CA
:1034B0001397AD012115310509F1D901F3CF9D0114
:1034C000DA013383228360817181860F971F82170F
:1034D000930769F4EC0128813981260F371F2E5F8D
:1034E0003F4F318320838A819B8193838283452B45
:1034F00029F4F093630DE093620D42C01396FC93A0
:10350000EE931297ED01499159919E01240F351FB9
:10351000E217F30771F480819181840F951F029661
:1035200011969C938E938281938113969C938E9394
:103530001297E0E0F0E0D80112968D919C911397DC
:10354000009719F0F8018C01F6CF8D919C919801AC
:103550002E5F3F4F820F931F2091600D3091610DC0
:103560002817390769F4309729F41092630D1092E7
:10357000620D02C0138212821093610D0093600DE0
:0E358000DF91CF911F910F910895F894FFCF26
:10358E000000640D800000000000650F160D130D85
:10359E00100D000000003E0EF80DF50DF20D0000AE
:1035AE0000003D0FCE0CCB0CC80C726F737365729E
:1035BE0069616C5F6D7367732F5265717565737496
:1035CE00506172616D00000000009A07CE1150012B
:1035DE00E00781015F01730100000000740EAE0967
:1035EE00AB09A809000000009E0EE80FC50CC20C26
:1035FE000000000035024503D20100000000EA0B76
:10360E00890B860B830B00000000570B190B160B52
:10361E00130B00000000CF0A6D0A6A0A670A000049
:10362E000000330A190A160A130A000000005C0A89
:10363E004D0A4A0A470A00000000060CAF0B100A9A
:10364E000D0A00000000450C420C3F0C3C0C000023
:10365E0000002E022A02270224020000000031037D
:10366E0020021D021A0200000000930C8C0C890C23
:10367E00860C0000000011020D020A020702000073
:10368E000000720C4E0C4B0C480C000000001C038A
:10369E0003020002FD0100000000A70CA00C9D0C0F
:1036AE009A0C00000000F401F001ED01EA010000A7
:1036BE000000BB0CB40CB10CAE0C000000000312E9
:1036CE0003120312031200000000E101DD01DA0112
:1036DE00D70138623934633162353364623631660C
:1036EE006236616564343036303238616436333375
:1036FE003261007374645F6D7367732F426F6F6C0A
:10370E0000616437333661326538383138313534DB
:10371E006334383762623830666534326365343309
:10372E0062007374645F6D7367732F427974650002
:10373E003330346133393434393538386337663899
:10374E00636532646636653830303163356663657D
:10375E00007374645F6D7367732F55496E743332E3
:10376E00003763383136343232396537643263317B
:10377E0037656239356539323331363137666465CE
:10378E0065007374645F6D7367732F55496E74387B
:10379E000035626437613037383134393839383270
:1037AE0034633432356637313365656236323564AB
:1037BE00610066697265626972642F4C63640064AD
:1037CE00343164386364393866303062323034658F
:1037DE0039383030393938656366383432376500F8
:1037EE007374645F6D7367732F456D707479004DDC
:1037FE006573736167652066726F6D2064657669A7
:10380E0063652064726F707065643A206D657373C2
:10381E00616765206C6172676572207468616E20E5
:10382E006275666665722E003737313132636639DE
:10383E006536356261323366336436623037383519
:10384E00326233356139616500666972656269722B
:10385E00642F53656E736F72003466396163343151
:10386E0037646539393965643264343436643233D9
:10387E00303339653132636364006669726562693B
:10388E0072642F4175780063366464346432646206
:10389E006563333232656563636138613264306407
:1038AE003166646634643400666972656269726496
:1038BE002F426174746572790066313532663066F6
:1038CE003037646538306531336333623930326294
:1038DE003837323734326630350066697265626960
:1038EE0072642F49520039623535323734663037BB
:1038FE00653030333461326232663464346234346B
:10390E003336616163360066697265626972642F6F
:10391E005368617270003138333232326534646408
:10392E0066306338653835613230666337366363C7
:10393E006635383162390066697265626972642F64
:10394E00574C530039663065393862646136353903
:10395E0038313938366464663533616661376134BF
:10396E003065343900313161626437333163323559
:10397E00393333323631636436313833626431323F
:10398E00643632393500726F7373657269616C5FBC
:10399E006D7367732F4C6F67003061643531663815
:1039AE0038666334343839326638633130363834F9
:1039BE0030373736343630303500726F7373657288
:1039CE0069616C5F6D7367732F546F706963496EB5
:1039DE00666F00636437313636633734633535329C
:1039EE0063333131666263633266653561376263B4
:1039FE00323839007374645F6D7367732F54696D59
:103A0E0065002F66697265626972642F73656E73E5
:103A1E006F7273002F66697265626972642F6275C8
:103A2E007A7A6572002F66697265626972642F6DAB
:103A3E006F746F722F636F6E666967002F6669729F
:103A4E0065626972642F6D6F746F722F70776D5F20
:103A5E006C002F66697265626972642F6D6F746F88
:103A6E00722F70776D5F72002F6669726562697270
:103A7E00642F6D6F746F722F6C696E656172002F9B
:103A8E0066697265626972642F6D6F746F722F61F1
:103A9E006E676C65002F66697265626972642F626B
:103AAE00617267726170685F6C6564002F6669721F
:103ABE0065626972642F6C63642F7072696E740034
:103ACE002F66697265626972642F6C63642F636C12
:043ADE0065617200AC
:00000001FF
